:020000040800F2
:10000000000005202D030008119B0008390300089B
:100010008103000885030008CD03000800000000EC
:1000200000000000000000000000000015040008AF
:1000300019040008000000004D9A00083D880008DF
:10004000C91B0008C91B0008C91B0008C91B000800
:10005000C91B0008C91B0008C91B0008C91B0008F0
:10006000C91B0008C91B0008C91B0008C91B0008E0
:1000700085880008C91B000871880008C91B000892
:10008000C91B0008C91B0008C91B0008C91B0008C0
:10009000C91B0008C91B0008C91B0008C91B0008B0
:1000A000C91B0008C91B0008C91B0008C91B0008A0
:1000B000C91B0008C91B0008C91B0008C91B000890
:1000C000C91B0008C91B0008C91B0008C91B000880
:1000D000C91B0008C91B0008C91B00089988000833
:1000E000C91B0008C91B0008C91B0008C91B000860
:1000F000C91B0008C91B0008C91B0008C91B000850
:10010000C91B0008C91B0008C91B0008C91B00083F
:10011000C91B0008C91B0008C91B0008C91B00082F
:10012000C91B000831890008C91B0008C91B000849
:10013000C91B0008C91B0008C91B0008C91B00080F
:10014000C91B0008C91B0008C91B0008C91B0008FF
:10015000C91B00081D890008C91B00084589000843
:10016000C91B0008C91B0008C91B0008C91B0008DF
:10017000C91B0008C91B0008C91B000800000000BB
:10018000C91B0008C91B0008C91B0008C91B0008BF
:10019000C91B0008C91B0008C91B0008C91B0008AF
:1001A000C91B0008C91B0008C91B0008C91B00089F
:1001B000C91B0008C91B0008C91B0008C91B00088F
:1001C000C91B0008C91B000800000000C91B00086B
:1001D000C91B0008C91B0008C91B0008C91B00086F
:1001E000C91B0008C91B0008C91B0008C91B00085F
:1001F000C91B0008C91B000800B583B001F05CFCF6
:10020000384A394B394C3A483A499A4204600C60B2
:100210000BD2D443234423F00305374E0435002387
:10022000F458D4500433AB42FAD10268334B9A42AB
:1002300000D0FEE70A68324B9A42FAD1314B32487D
:100240002A4C3249324A83420C6014600AD2DC43A1
:10025000204420F003001844043B002443F8044FDA
:100260008342FAD10B6803B1FEE71468002CFBD17E
:10027000284D294E01F02CFC761B684601A9B610CA
:1002800001F0F4FB002EC8BF043D05DD013455F834
:10029000043F9847B442F9D1204E214D761BB61049
:1002A000002E07DD043D0024013455F8043F984733
:1002B000B442F9D19DE8030008F02EF8194D1A4C0C
:1002C0000646641BA410002CC8BF05EB840505DDA1
:1002D000013C55F8043D9847002CF9D1304601F017
:1002E000A3FB00BF0000012088000120BABADECACB
:1002F0000000012084000120D8D100087856341273
:100300003254769888000120446E01208800012034
:10031000406E0120580400085804000878040008C2
:1003200058040008780400088804000808B5FFF79E
:1003300063FF00BF00BEFEE71EF0040F0CBFEFF32B
:100340000880EFF309807146364A10472DE9F041E5
:10035000094C82B0676BA66BA46A884605460748BD
:1003600001F08CFBCDF8008021463A463346284602
:1003700001F0B0FB00BEFEE700ED00E0DCBE0008CF
:1003800000BEFEE71EF0040F0CBFEFF30880EFF392
:1003900009807146244A10472DE9F041094C82B08A
:1003A000676BA66BA46A88460546074801F066FBA2
:1003B000CDF8008021463A463346284601F08AFBB4
:1003C00000BEFEE700ED00E0ECBE00081EF0040FEA
:1003D0000CBFEFF30880EFF309807146134A104712
:1003E0002DE9F041094C82B0676BA66BA46A884680
:1003F0000546074801F042FBCDF8008021463A4609
:100400003346284601F066FB00BEFEE700ED00E043
:10041000F8BE000800BEFEE700BEFEE700BEFEE735
:10042000704700004D03000899030008E10300082D
:10043000D8D100080000012088000120D8D1000890
:10044000000000100000001088000120446E012010
:10045000000000100000001009850008F187000866
:100460005D90000801950008AD9900086D9D000899
:1004700035B0000869B30008B18500083988000864
:08048000B59D0008D5B000088D
:1004880008B5032000F016F8002007F083FE00F0FE
:100498006FFB002008BD00BF024B1A6801321A60CA
:1004A800704700BF386E0120014B1868704700BFC5
:1004B800386E0120074A4FF6FF01D36800F00700A5
:1004C8000B4043F0BF6343F4003343EA0023D36097
:1004D800704700BF00ED00E0704700BF08B5FFF7A8
:1004E800FBFF08BDF8B50446FFF7DEFF0546002C04
:1004F8006FD00222236884F835201A68002122F080
:10050800010284F834101A6005E0FFF7CDFF401BA4
:1005180005283CD823681A68D107F6D4A068616812
:10052800E26840EA01072169174362690F43A0693D
:100538001743E16907430F43256A1E68324A616A17
:100548003D433240042945EA020527D01D605A6917
:1005580022F007021143D8B22C4A1038A2FB0050EF
:100568002B4A0009125C3F259540596123F47F739B
:1005780023F003030328E26588BF04330022012126
:10058800A36510469D60626584F83510F8BD0323A5
:1005980020226265184684F83530F8BDE66A216B7A
:1005A800A26A31430D431D60596942F0040521F0E8
:1005B8000701294378B9012A22D001D3022ACAD1D6
:1005C800F201C8D5012340226265184684F8353007
:1005D800F8BD0120F8BDB0F5005F04D0022AF1D9BA
:1005E800032AB8D1ECE7032AB5D801A050F822F0C5
:1005F800CD050008C9050008CD0500080906000852
:10060800B6F1C07FA7D1DDE73F8010E0ABAAAAAA68
:10061800A4BD0008F0B490F83440856D012C0CD0CE
:1006280090F835400126B44280F8346008D0F0BC18
:10063800002380F83430022070470220F0BC704755
:1006480004680227002680F83570466527688668A2
:1006580027F480272760402E6360C36D0EBFA26019
:10066800A160E2604FF03F0202FA03F308BFE160C5
:10067800AB602268036C42F016022260626942F0A5
:10068800800262611BB1236843F00803236023687A
:10069800002043F001032360F0BC704770B50446A6
:1006A800866DFFF701FF94F835300546022B06D01A
:1006B80080220023626584F83430012070BD2368ED
:1006C800226C196821F016011960596921F080011E
:1006D80059613AB31A6822F008021A601A6822F0BF
:1006E80001021A6005E0FFF7DFFE401B052810D85D
:1006F80023681B6813F00103F5D1E26D3F2101FA6D
:1007080002F20121B260184684F8343084F83510BA
:1007180070BD202200230320626584F8343084F8F9
:10072800350070BDA26C002AD4D1D7E7C36D08226A
:100738009A40F0B5002183B0866D01913568614912
:100748002A4204460F6803D001680868400776D437
:100758005D4A9A402A4203D021684969080668D44C
:100768005A4A9A402A4203D02168096889075AD40C
:1007780010229A402A4203D02168086800073FD413
:1007880020229A402A4203D021680868C00625D44E
:10079800636D0BB3636DDA071AD54D4905232268DB
:1007A80084F83530A1FB07311368890A23F0010367
:1007B800136002E01368DB0704D5019B01339942FB
:1007C8000193F7D20022012384F8342084F83530CD
:1007D800E36C0BB12046984703B0F0BDB26094F8C3
:1007E8003520052A3BD00B6813F4802F0B6854D0B2
:1007F80019035FD5E36B002BCAD020469847C7E79B
:10080800B2600A6812F4802F0A6822D1D20503D494
:100818000A6822F008020A60226C002AB0D020463A
:100828009047E36DACE7B260626D42F00402626526
:100838009EE7B260626D42F00202626590E7086866
:1008480020F004000860B260626D42F00102626547
:100858007EE71103E0D5A26C002AE0D190E7086892
:10086800226C20F016000860486920F0800048617A
:1008780022B30A6822F008020A603F2202FA03F350
:10088800226D00200121B36084F8340084F835100B
:10089800002AA1D0204690479EE713F48073A9D17F
:1008A8000868012220F01000086084F8343084F8C9
:1008B80035209FE7636C002B9FD169E7A26C002A63
:1008C800D7D1DAE70C000120010080000400800085
:1008D800B5814E1B2DE9F00F002384B00E6803E0AC
:1008E8000133102B00F0BA8001229A4002EA060474
:1008F8009442F5D14A6822F0100CBCF1020F00F0C6
:10090800B1805D000327AF4002F0030909FA05F939
:10091800D0F80080FF4307EA08080CF1FF3C48EADA
:100928000908BCF1010F0197C0F8008040F2C180AE
:100938008F68D0F80CC007FA05F5DDF8048008EADE
:100948000C073D43C560D500CAD503F0030C4FEA38
:100958008C0C4FF00F0909FA0CF9784F23F00305B6
:10096800D7F8448005F1804548F48048C7F84480AA
:100978007F6C05F59C3507F480470397DFF8C48141
:10098800039FAF68404527EA090700F0AB8008F5E8
:100998008068404500F0A980DFF8AC81404500F050
:1009A800A980DFF8A881404500F0A980DFF8A08180
:1009B800404500F0A980DFF89C81404500F0A980FF
:1009C800DFF89481404500F0A980DFF89081404528
:1009D80000F0A980DFF88881404500F0A980DFF8A1
:1009E800848140450CBF4FF009084FF00A0808FA07
:1009F8000CFC4CEA070C524FC5F808C03D6812F4CD
:100A0800803F6FEA040714BF44EA050C07EA050CA7
:100A18004B4D12F4003FC5F800C06D6803F10103A7
:100A280014BF44EA050C07EA050C454D12F4801F73
:100A3800C5F804C0AD6814BF44EA050C07EA050C04
:100A48003F4D9202C5F808C0ED683D4A54BF07EA19
:100A580005042C43102BD4607FF446AF04B0BDE8E6
:100A6800F00F704703F007050F69AD004FF00F0A4C
:100A78000AFA05FA07FA05FB5D000327AF4002F002
:100A8800030808FA05F84FEAD30C00EB8C0CDCF8E5
:100A98002090FF4329EA0A0949EA0B09CCF820907B
:100AA800D0F800C0019707EA0C0C4CEA080CC0F813
:100AB80000C0CF68C2F3001807FA05F908FA03F86E
:100AC800D0F808C0019F07EA0C0C4CEA090CC0F8E2
:100AD80008C0D0F804C02CEA040C4CEA080CC0F892
:100AE80004C025E74FF0000C83E74FF0010808FA2F
:100AF8000CFC7EE74FF0020808FA0CFC79E74FF08F
:100B0800030808FA0CFC74E74FF0040808FA0CFC18
:100B18006FE74FF0050808FA0CFC6AE74FF0060883
:100B280008FA0CFC65E74FF0070808FA0CFC60E7C8
:100B38004FF0080808FA0CFC5BE700BF00380240D9
:100B4800003C01400000024000080240000C024046
:100B5800001002400014024000180240001C02402D
:100B68000020024000240240436959404161704717
:100B7800704700BF1B4B10B5196C82B041F0805113
:100B880019641B6C184A03F080530193019B136886
:100B980043F480331360FFF787FC044605E0FFF752
:100BA80083FC001BB0F57A7F18D80F4B5A68D20324
:100BB800F5D51A6842F400321A60FFF775FC04464E
:100BC80005E0FFF771FC001BB0F57A7F06D8064BED
:100BD8005B689B03F5D5002002B010BD032002B06E
:100BE80010BD00BF0038024000700040F0B5036837
:100BF8000446D80783B032D5A64A916801F00C01A3
:100C0800042900F0FE80916801F00C01082900F029
:100C1800F4806368B3F5803F00F04081002B00F05A
:100C28000B81B3F5A02F9B4B1A6800F0A38122F427
:100C380080321A601A6822F480221A60FFF734FCA6
:100C4800054607E0FFF730FC41F28833401B984225
:100C580000F2AF808F4B1B689F03F3D5236898077A
:100C68002FD58C4A916811F00C0F00F0A98091687B
:100C780001F00C01082900F09F80E368002B00F0C8
:100C8800F480844B1A6842F001021A60FFF70CFCEA
:100C9800054605E0FFF708FC401B022800F28980A2
:100CA8007C4B1A689707F5D51968F82090FAA0F0D8
:100CB8002269B0FA80F0824021F0F8010A431A60F4
:100CC8002368180720D45B0736D4A369CBB1714ACF
:100CD800916801F00C01082979D0022B136823F0E0
:100CE8008073136000F0E080FFF7DEFB044604E049
:100CF800FFF7DAFB001B02285BD8664B1B689B01D9
:100D0800F6D4002003B0F0BD6369002B62D0614BBC
:100D18005A6F42F001025A67FFF7C6FB054604E026
:100D2800FFF7C2FB401B022843D85A4B5B6F990759
:100D3800F6D523685B07C8D5564B574A196C41F05E
:100D4800805119641B6C03F080530193019B136855
:100D580043F480731360FFF7A7FB054604E0FFF731
:100D6800A3FB401B642824D84B4B1B68DF05F6D532
:100D7800A368012B00F00681002B00F0E280052B10
:100D8800444B1A6F00F0048122F001021A671A6FAF
:100D980022F004021A67FFF787FB05463D4B1B6FDD
:100DA8009E0792D4FFF780FB41F28833401B98429C
:100DB800F4D9032003B0F0BD526851023FF55DAF8E
:100DC800344A1268920726D5E268012A23D0012006
:100DD80003B0F0BD2F4B5A6F22F001025A67FFF79C
:100DE80063FB054604E0FFF75FFB401B0228E0D8E1
:100DF800284B5B6F9A07F6D49BE7526851027FF540
:100E080008AF244A126892037FF529AF6268002A66
:100E18007FF425AFDBE71F4AF825106895FAA5F59A
:100E28002169B5FA85F5A94020F0F80001431807B3
:100E380011607FF548AF67E7164B1A6822F48032D5
:100E48001A601A6822F480221A60FFF72DFB054603
:100E580006E0FFF729FB41F28833401B9842A8D8E7
:100E68000C4B1B689E03F4D4F8E60A4B1A6822F070
:100E780001021A60FFF718FB054604E0FFF714FBB0
:100E8800401B022895D8034B1B689E07F6D423689D
:100E980017E700BF0038024000700040404B1A6856
:100EA80042F480321A60C9E6FFF7FEFA054605E00B
:100EB800FFF7FAFA401B02283FF67BAF384B1A6857
:100EC8009101F5D447F6C07595FAA5F54FF4403071
:100ED800B5FA85F590FAA0F04FF07067B0FA80F097
:100EE80097FAA7F74FF0E046B7FA87F796FAA6F60B
:100EF800A16A626A490802FA05F54A1EE16A02FA1D
:100F080000F0226BB6FA86F6B940B240266AE46968
:100F180034432C43204301430A435A601A6842F081
:100F280080721A60FFF7C0FA044605E0FFF7BCFAC2
:100F3800001B02283FF63DAF194B1B689A01F5D5F7
:100F4800DFE6174B1A6F22F001021A671A6F22F0B8
:100F580004021A67FFF7A8FA0546114B1B6F98079A
:100F68007FF5B3AEFFF7A0FA41F28833401B9842F1
:100F7800F3D91EE742F480221A601A6842F48032DC
:100F88001A605BE6064B1A6F42F001021A6702E725
:100F980042F004021A671A6F42F001021A67FAE671
:100FA80000380240704B70B51A680C4602F00F0208
:100FB8008A4205460BD21A6822F00F020A431A60C9
:100FC8001B6803F00F038B4201D0012070BD2B6812
:100FD8009A0706D5654AA968906820F0F000014391
:100FE8009160DB0726D56B68604A012B126800F018
:100FF800B680022B00F0AD809107E6D55B4A916878
:1010080021F003010B439360FFF74EFA6B68064625
:10101800012B4FD0022B08D15AE0FFF745FA41F2D5
:101028008833801B984200F29880504B9B6813F0DD
:101038000C0FF2D14C4B1A6802F00F02944209D2FD
:101048001A6822F00F0222431A601B6803F00F038C
:10105800A342BAD12B685A0706D5444AE968906872
:1010680020F4E050014391601B0738D43F4B9A6845
:1010780002F00C02042A40D0082A40D03C4A3B49DE
:10108800F023896893FAA3F3B3FA83F301F0F0012C
:10109800D9403848384B415C0020CA401A6007F0F4
:1010A80079F8002070BDFFF7FFF941F28833801B03
:1010B800984252D82D4B9B6803F00C03042BF2D1B5
:1010C800B8E7FFF7F1F941F28833801B984244D81A
:1010D800264B9B6803F00C03082BF2D1AAE7234B9D
:1010E80029699A6822F4604242EAC1029A601F4B59
:1010F8009A6802F00C02042ABED1204ABFE7596858
:101108005A6801F03F0112F4800F47F6C0705A6820
:1011180090FAA0F047F6C073B0FA80F002EA030331
:1011280023FA00F314BF15481148B0FBF1F101FB95
:1011380003F00E494FF44033496893FAA3F3B3FA26
:1011480083F301F44032DA4001325200B0FBF2F28C
:1011580095E790013FF552AF37E7032070BD96033E
:101168003FF54CAF31E700BF003C02400038024079
:101178000024F40008BF00080C00012000127A00C7
:101188001A4B9A6802F00C02042A2DD0082A29D199
:1011980058685A6800F03F0112F4800F47F6C07093
:1011A8005A6890FAA0F047F6C073B0FA80F002EAE5
:1011B800030323FA00F314BF0D480E484FF44032DE
:1011C800B0FBF1F000FB03F0084B5B6892FAA2F267
:1011D800B2FA82F203F44033D34001335B00B0FB30
:1011E800F3F07047034870470148704700380240E1
:1011F80000127A000024F400084B4FF4E0529B6878
:1012080092FAA2F2B2FA82F203F4E053D34004490C
:10121800044ACB5C1068D840704700BF00380240D1
:1012280018BF00080C000120084B4FF460429B686F
:1012380092FAA2F2B2FA82F203F46043D34004496C
:10124800044ACB5C1068D840704700BF00380240A1
:1012580018BF00080C000120704700BF38B50446CD
:10126800002869D090F8393003F0FF02002B4ED0E7
:1012780023683249022284F839208B421A684BD0FD
:10128800B3F1804F2DD0A1F57C418B4229D001F5D7
:1012980080618B4225D001F580618B4221D001F518
:1012A80078418B421DD001F570518B421DD001F55C
:1012B80080618B4219D001F580618B4215D0A1F570
:1012C80098318B4211D001F580618B420DD001F528
:1012D80080618B4209D0E06861681A60D8629962BF
:1012E8000FE0A16822F070020A43216922F44072DB
:1012F8001143134AE568606893421960DD62986299
:1013080017D001225A61002084F8392038BD80F8AE
:101318003820FFF7A1FFABE7A16822F070020A436B
:10132800216922F4407211431960E268DA62626846
:101338009A6262691A63E4E7012038BD000001403F
:1013480000040140704700BF2DE9F041044690F8C1
:101358006900202802D00220BDE8F08181B37AB369
:1013680094F868000128F6D0266E2768DFF858C080
:10137800DFF858E000254FF001082120A4F852209A
:10138800A4F85020E566E16484F8690084F8688070
:101398001346304607F1280235643565C6F83CC067
:1013A800C6F84CE0FFF736F9236840221A629A68BB
:1013B800284642F0800284F868509A60BDE8F081BF
:1013C8000120BDE8F08100BFF11400086D15000888
:1013D8002DE9F843044690F86A001346202802D005
:1013E8000220BDE8F883002938D0002A36D094F8C6
:1013F8006820012AF4D0656E2768DFF868C0DFF836
:1014080068E0DFF8688000264FF001092220616556
:10141800A4F85830E66684F8689084F86A000A46AA
:1014280028462E65C5F83C80C5F840C0C5F84CE094
:1014380007F12401FFF7EEF8236884F868601A685A
:10144800304642F480721A609A6842EA09029A6049
:101458009A6842F040029A60BDE8F8830120BDE82E
:10146800F88300BF5D1500086D15000825150008F4
:1014780090F8693010B5212B04461FD094F86A30D3
:10148800222B01D0002010BD23689A685206F9D596
:101498009A68606E22F040029A6010B1FFF7FEF879
:1014A80023681968202221F4907119609968002036
:1014B80021F00101996084F86A2010BD03689A68D8
:1014C8001106DBD59A68006E22F080029A6010B18E
:1014D800FFF7E4F823681968202221F0C001196099
:1014E80084F86920CAE700BF026808B51268836BF0
:1014F80012F4807203D0184602F0FEF908BD19688C
:10150800A3F852208868202220F0800088601846BE
:1015180083F8692002F0F0F908BD00BF08B5036838
:10152800806B1B6813F4807211D10368A0F85A20ED
:101538001968202221F480711960996821F001014D
:101548009960996821F04001996080F86A2002F05A
:1015580025FA08BD08B5806B02F072FA08BD00BF15
:10156800704700BF08B5836B0022A3F85A20A3F880
:10157800522093F86920212A1BD093F86A20222A46
:1015880007D0DA6E184642F01002DA66FFF7E8FF75
:1015980008BD1A6891684906F3D51068202120F41F
:1015A80090701060906820F00100906083F86A10D5
:1015B800E7E71A6891680806DFD51068202120F04F
:1015C800C000106083F86910D7E700BF436A10B401
:1015D800DA0706D50268816A546824F40034214386
:1015E80051609C0706D50268C16A546824F48034A7
:1015F80021435160590706D50268016B546824F4E9
:101608008024214351601A0706D50268416B54684B
:1016180024F4004421435160DC0606D50268816B3E
:10162800946824F4805421439160990606D5026891
:10163800C16B946824F40054214391605A060AD57A
:101648000268016C5468B1F5801F24F4801444EAE0
:10165800010454600BD01B0606D50368816C5A68D8
:1016680022F400220A435A605DF8044B704754681C
:10167800416C24F4C00421435160ECE770B5044682
:10168800002848D090F8693003F0FF02002B44D0BE
:101698002568242384F869302B68A268266923F01A
:1016A80001032B60616928681643B84BE26931432E
:1016B800034011430B432B606968E36821F44051F0
:1016C8000B436B60AE68216AA369B14826F43066A3
:1016D8000B4333438542AB604AD0AE4B9D4200F08A
:1016E800FB80AD4B9D4200F00081AC4B9D4219D070
:1016F800AB4B9D4227D0AB4B9D4200F0AF80AA4B2D
:101708009D4200F01281A94B9D4200F07381B2F511
:10171800004F00F06C81012070BD80F86820FFF751
:1017280011FEB5E703F5F633D3F8903003F0C003A4
:10173800402B00F09C8012D9802B00F0AB80C02B8E
:1017480000F0E280E3E703F5F433D3F8903003F4D4
:101758004073B3F5807F00F08A8000F24081002B4F
:10176800D5D1B2F5004F00F00D81FFF745FD83E0BC
:101778008F4B9049D3F8903003F00303CB5CB2F55C
:10178800004F00F09F80082BC5D801A252F823F023
:1017980073170008C7180008A51800081F170008C5
:1017A8007D1800081F1700081F1700081F170008DA
:1017B800BD17000863685A0802F50042B2FBF3F34C
:1017C8009BB2EB60636A002B60D1236800225968E2
:1017D80021F490415960996821F02A0199601968AB
:1017E80041F001011960E266FEF75EFE23680546D6
:1017F8001A6810070BD41A68520724D42023002033
:1018080084F8693084F8680084F86A3070BDDA6951
:101818009102F0D4FEF748FE674B401B98422368BC
:10182800F5D91868202220F4D07018609D6800212E
:1018380025F001059D60032084F8692084F868106C
:1018480084F86A2070BDDB695B02D7D4FEF72CFEF2
:10185800594B401B98422368F5D9E2E703F59233C8
:10186800D3F8903003F44063B3F5806F6FD1B2F5CD
:10187800004F74D0FFF784FC636800EB5300B0FBA3
:10188800F3F39BB2EB60636A002B9ED02046FFF710
:101898009DFE9AE7B2F5004F00F092806268530807
:1018A80003F5740303F51053B3FBF2F39BB2EB603B
:1018B80088E7002B7FF42BAFB2F5004F5FD0FFF71E
:1018C800B3FCD9E7082B00F29280DFE803F05B58FD
:1018D800799048909090210003F5FA33D3F890302E
:1018E800364903F00C03CB5C49E703F5F833D3F82A
:1018F800903003F03003102BB9D07FF630AF202B97
:10190800C8D0302B7FF403AFB2F5004F7FF452AF4D
:1019180063685A0802F58032B2FBF3F39AB2C2F355
:10192800420322F00F0213434BE703F5E033D3F8E9
:10193800903003F44053B3F5805F98D07FF60FAF33
:10194800B3F5005FA6D0B3F5405FDDD0DFE6B0D9D0
:10195800B3F5006F9ED0B3F5406FD5D0D7E6FFF74B
:101968000FFC636825685A0802EB4000B0FBF3F3EC
:101978009AB2C2F3420322F00F02134321E7FFF7A2
:1019880053FCEEE7FFF738FCEBE700BFF369FFEF26
:10199800001001400044004000480040004C004056
:1019A800005000400014014000780040007C0040D6
:1019B80000380240ACBD0008FEFFFF01B0BD0008C2
:1019C8006268530803F1F47303F59043B3FBF2F232
:1019D80092B2C2F3420322F00F021343F1E6B3F5C9
:1019E800007F3FF457AFB3F5407F8DD08FE60023DB
:1019F800EB6090E603F5DE33D3F8903003F4404310
:101A0800B3F5804F3FF433AF7FF6A9AEB3F5004F7F
:101A18003FF440AFB3F5404F3FF476AF77E600BFF1
:101A2800FEE700BF08B50C4B01461A6882B11046A4
:101A3800CA1C22F00302094902448A4201D81A60EA
:101A480008BD09F0A5FC0C2303604FF0FF3008BD6A
:101A580003481860ECE700BF8C00012000C0042098
:101A6800446E0120024B012202600B60704700BFE8
:101A7800040001200FB410B582B004AC54F8042B54
:101A880008482346802101940AF0BAF8002803DDAB
:101A98000146044800F008F802B0BDE8104004B060
:101AA800704700BF940001204FF0FF30704700BF1F
:101AB80008B500F087F8024A024B9A6008BD00BFDB
:101AC8000000000800ED00E0704700BF2DE9F0417C
:101AD8000446284890461F460D46069EFFF7CAFF53
:101AE80021682548FFF7C6FF61682448FFF7C2FF51
:101AF800A1682348FFF7BEFFE1682248FFF7BAFF55
:101B080021692148FFF7B6FF61692048FFF7B2FF56
:101B1800A1691F48FFF7AEFFE1691E48FFF7AAFF5A
:101B28001D4C1E48FFF7A6FF29461D48FFF7A2FFD8
:101B3800E16A1C48FFF79EFF216B1B48FFF79AFFDD
:101B4800E16B1A48FFF796FF2A060ED42B0403D53B
:101B580039461748FFF78EFF1648FFF78BFF3146C7
:101B68001548BDE8F041FFF785BF41461348FFF728
:101B780081FFEBE7C0BD0008D0BD0008E0BD00084C
:101B8800F0BD000800BE000810BE000820BE000816
:101B980030BE000840BE000800ED00E050BE00085E
:101BA8005CBE00086CBE00087CBE00088CBE000845
:101BB800ACBE0008BCBE0008C4BE00089CBE00083D
:101BC800FFF7FEBF0D4B00211A6810B442F0010266
:101BD8001A6099601A680A4C22F0847222F48032E2
:101BE8001A605C601C68074824F480244FF0006287
:101BF8001C60D9605DF8044B826070470038024071
:101C08001030002400ED00E008B503680021DB680F
:101C1800984708BD014B83600820704725220008BB
:101C2800014B0360704700BF28BF00080249034A00
:101C38000160C260704700BF38BF000828BF0008B5
:101C480010B5034B0446036009F098FB204610BD0D
:101C580028BF000810B5044A044B04460260C3605C
:101C680009F08CFB204610BD38BF000828BF0008CB
:101C7800F8B50B880C46022B054661D05ED9B3F542
:101C8800486F1DD040F68242934261D1297B22469B
:101C9800374B032009F028F90C202E7B6579E4885E
:101CA80008F054FA002240F6834146710571C48059
:101CB800018002724272428107F0DCFF0320F8BD06
:101CC8000320297B22462A4B09F00EF9D5F81C611E
:101CD800002E48D096F8383062799A4203D02548C9
:101CE8009C2106F093FAA368C5F82831002B33D05D
:101CF800EFF3118172B63F2282F3118862B6002297
:101D0800DA601A611A7581F31188237B0C2085F833
:101D1800243167792E7BE48808F018FA002240F60F
:101D280081410771C480467101800272427242810A
:101D380007F0A0FF104B0820AB60F8BD012B07D1BE
:101D4800297B224603200A4B09F0CEF80320F8BD70
:101D58000A4B0020AB60F8BD06489E2106F056FAF3
:101D6800D5F82831C4E703489B2106F04FFAB1E7BC
:101D7800B0BF0008D8BF0008891D00082522000848
:101D8800F8B50B880C46022B054644D025D9032B01
:101D98001FD040F68242934239D1297B2246224BFA
:101DA800032009F0A1F80C2067792E7BE48808F05D
:101DB800CDF9002240F6834107714671C480018045
:101DC80002724272428107F055FF184B0820AB603F
:101DD800F8BD174B0820AB60F8BD012B17D10A4698
:101DE8000320297B104B09F07FF82D7BA5F10C040B
:101DF800A4B2012C03D90F484A2106F007FA294654
:101E0800234603200C4A08F0E5FF0320F8BD0B4BDE
:101E18000020AB60F8BD017B22460320024B09F08D
:101E280063F80320F8BD00BFA8BF0008791C0008AC
:101E3800A5220008D8BF0008E8BF0008252200082E
:101E4800F8B50B880446032B5AD00DD9B3F5446F67
:101E58001AD040F6424293424ED0B3F5406F17D0A5
:101E68002C4B0020A360F8BD012B36D0022BF7D1F4
:101E78000A46294B217B032009F036F804F59870AF
:101E880009F0D8F90320F8BD244B0820A360F8BD59
:101E98000A460320217B204B09F026F8D4F81C5170
:101EA800002D31D0668E95F83870731C63860C202F
:101EB800257B08F04BF940F6844E02210022077179
:101EC8004571C6804572A0F800E00172428107F0B2
:101ED800D1FE134B0820A360F8BD0A460E4B217BA8
:101EE800032009F001F804F598704FF47A71002284
:101EF80009F07EF90320F8BD0A4B0820A360F8BD5D
:101F0800094B0820A360F8BD08484FF4897106F012
:101F18007DF9C7E7891D0008A0BF0008A5220008B1
:101F2800F5210008491E0008391F0008D8BF00081D
:101F3800F8B50B8840F6414293420D46044600F03E
:101F480095800BD8012B38D0022B23D1017B2A4650
:101F580003206F4B08F0C8FF0320F8BD40F682420B
:101F680093421BD040F68542934213D1077B0C2045
:101F78004E79CC8808F0EAF8002240F6864147718D
:101F88000671C480018002724272428107F072FEBB
:101F98000320F8BD5F4B0020A360F8BD217B2A46D3
:101FA8005B4B032008F0A0FF294604F1340008F039
:101FB800A7F8594B0820A360F8BD0A460320217BE7
:101FC800534B08F091FFD4F8283119699A685E6874
:101FD80002EA01073744EFF3118072B63F2585F313
:101FE800118862B6DB685B1A134080F31188591EAA
:101FF80016447A18B24286BF0136C7EB06061E465B
:1020080056B1EFF3118272B63F2181F3118862B69F
:1020180082F311889E4204D940484FF4967106F025
:10202800F5F827F01F0207F11F05AD1A354425F012
:102038001F05BFF34F8F002D0ADD154402F1200361
:1020480000E020333648AB42C0F868221A46F8D17F
:10205800BFF34F8FBFF36F8F3946D4F82001B2B268
:10206800FFF772F9C4F82C610320F8BDD0F82831C5
:10207800EFF3118572B63F2282F3118862B61869B0
:10208800D4F82C119A6801441140196185F311881C
:10209800EFF3118072B63F2585F3118862B680F39D
:1020A8001188DB685B1A13EA020510D00820257B2B
:1020B80008F04CF80023014640F6424205712046DC
:1020C8000A804B71CB8009F06FF80320F8BD668E4B
:1020D8000820731C6386277B08F038F894F82421BD
:1020E80040F6874302710380C680477107F0C2FD3E
:1020F8000820267B08F02AF84FF44463014606714D
:102108004571C58020460B8009F04EF80320F8BDC4
:1021180074BF0008491E00082D210008D8BF000818
:1021280000ED00E038B50B880D46022B04464CD074
:102138003DD940F64142934210D040F68242934244
:102148003FD1217B2A46274B032008F0CDFE04F11E
:102158003400294607F0D4FF032038BD0A4603207F
:10216800217B204B08F0C0FED4F82831EFF311850D
:1021780072B63F2282F3118862B61869D4F82C111E
:102188009A6801440A401A6185F311880820257B62
:1021980007F0DCFF002301464FF444620571204636
:1021A8000A804B71CB8008F0FFFF032038BD012B5C
:1021B80007D1017B2A4603200A4B08F095FE03202D
:1021C80038BD094B0020A36038BD0A46054B217B6A
:1021D800032008F089FE04F1340007F0ABFF032068
:1021E80038BD00BF94BF0008491E000808B50B8819
:1021F8000A46012B01D0022B07D1017B054B032096
:1022080008F072FE0323184608BD034A00238260C3
:10221800184608BD6CBF0008891D0008F8B50B8872
:102228000C46022B054626D023D9032B1DD0B3F527
:10223800486F28D1297B2246154B032008F054FE0D
:102248000C202D7B6679E48807F080FF40F68147F3
:102258000621002206714571C4804572078001720B
:10226800428107F007FD0320F8BD0A4B0820AB6048
:10227800F8BD012B07D1297B22460320044B08F027
:1022880033FE0320F8BD044B0020AB60F8BD00BF4F
:102298008CBF0008791C00082D8D0008F8B50B8844
:1022A8000A46022B044609D040F685418B420CD0E1
:1022B800012B03D0194B0020A360F8BD217B03201C
:1022C800174B08F011FE0320F8BD067B0C20577948
:1022D800D58807F03BFF002240F68641077146711A
:1022E800C580018002724272428107F0C3FCD4F8B3
:1022F8002831EFF3118272B63F2181F3118862B65B
:1023080082F31188D9681A699B688A1A1A421DBF14
:10231800044B0820A3600320F8BD00BF891D0008F6
:1023280060BF0008491E0008F8B50D4A0D4B0E4F56
:1023380006460260C0F8B830C0F8C47000F17805ED
:1023480000F1B80454F8083D1B6820469847A54298
:10235800F8D13767304606F0DFFC3046F8BD00BFDD
:1023680068D0000838BF000828BF0008F8B50E4A32
:102378000E4B0F4F06460260C0F8B830C0F8C47064
:1023880000F1780500F1B80454F8083D1B682046B0
:102398009847A542F8D13767304606F0BDFC30466D
:1023A80008F0ECFF3046F8BD68D0000838BF0008D8
:1023B80028BF000838B5094B05461C880820621C50
:1023C8001A8007F0C3FE002240F6414105714271B0
:1023D800C4800180BDE8384007F04CBC10000120E3
:1023E8002DE9F04789463D49044616461F46DFF861
:1023F80004A106F0F9FC3A493A4BDFF8FCC0DFF8D3
:10240800FCE00025042201204FF0080861622285C3
:10241800E3622661C4F818C0C4F81CE0208484F87C
:102428000C906461C4F800A0A4F83080658604F1BB
:10243800340007F053F9256504F1540007F04EF90C
:10244800294E2A4B04F17801284684F87450A4F8E0
:102458007650C4F8C08084F8C850A4F8CA50C4F8AC
:10246800B8302A46C4F8BC102667A667C4F880604E
:10247800C4F88860C4F89060C4F89860C4F8A06094
:10248800C4F8A860C4F8B060C4F8C46005E0D4F823
:10249800BC1094F8C850B4F8CA0001EBC2010D7121
:1024A800D4F8C0500132AA42C880F0D3104A0023A1
:1024B8002260C4F82071C4F81C3184F82431C4F8AF
:1024C8002831C4F82C3104F59870217B4FF4406210
:1024D80008F080FE2046BDE8F08700BF1D1C0008FC
:1024E8007CBF0008B8BF000828BF000838BF000834
:1024F80048BF000868D0000820CF0008E4BF0008E3
:10250800014B836008207047F5280008F8B50B8850
:102518000C46022B054654D051D9B3F5286F1DD06F
:1025280040F68222934254D1297B22462E4B032027
:1025380008F0DAFC0C202E7B6579E48807F006FEAB
:10254800002240F6832146710571C4800180027221
:102558004272428107F08EFB0320F8BD224B032014
:10256800297B224608F0C0FCA368C5F82831002B57
:1025780033D0EFF3118172B63F2282F3118862B62D
:102588000022DA601A611A7581F31188237B0C2006
:1025980085F8243167792E7BE48807F0D7FD00227F
:1025A80040F681210771C48046710180027242722F
:1025B800428107F05FFB0D4B0820AB60F8BD012B93
:1025C80007D1297B22460320074B08F08DFC032006
:1025D800F8BD074B0020AB60F8BD0648B72105F0F1
:1025E80015FED5F82831C4E700C100080126000807
:1025F800F5280008DCC10008F8B50B880C46022B4A
:10260800054644D025D9032B1FD040F68222934299
:1026180039D1297B2246224B032008F065FC0C2087
:1026280067792E7BE48807F091FD002240F683212C
:1026380007714671C480018002724272428107F0BC
:1026480019FB184B0820AB60F8BD174B0820AB608E
:10265800F8BD012B17D10A460320297B104B08F03F
:1026680043FC2D7BA5F10A04A4B2012C03D90F4821
:10267800472105F0CBFD2946234603200C4A08F0E4
:10268800A9FB0320F8BD0B4B0020AB60F8BD017B14
:1026980022460320024B08F027FC0320F8BD00BFA8
:1026A800F0C0000815250008C1260008DCC1000894
:1026B800E8BF0008F52800080B8870B5022B04460F
:1026C8003ED01FD9032B19D040F64222934233D172
:1026D8000A460320217B484B08F006FCD4F8203139
:1026E800D4F82821596E93680968D0684968591A3E
:1026F8000131091A19403FD1032070BD3F4B082012
:10270800A36070BD012B17D10A460320217B3A4BE9
:1027180008F0EAFBD4F82831D4F820019A685968FF
:10272800013292B2FEF754FE0028E5D0344840F258
:10273800051105F06BFDDFE7324B0020A36070BD8B
:102748000A462D4B217B032008F0CEFBD4F820014C
:10275800FEF78EFEEFF3118272B63F2383F31188E2
:1027680062B6D4F820311B68196821F0200119607D
:1027780082F31188032070BDEFF3118572B63F26EE
:1027880086F3118862B685F311881569013D2D1A03
:102798001D40A94210D90820257B07F0D7FC00234B
:1027A800014640F64322057120460A804B71CB80D2
:1027B80008F0FAFC032070BDEFF3118572B63F26CE
:1027C80086F3118862B601440B40D36085F3118803
:1027D800658E08206B1C6386267B07F0B7FC94F88F
:1027E800241140F68422C58001714671028007F0E9
:1027F80041FA032070BD00BFE8C000087529000831
:10280800DCC10008012600080B8870B5022B0446BD
:1028180047D01FD9B3F5206F0ED040F6412293421E
:102828003BD10A460320217B2C4B08F05DFB01239A
:1028380084F82C31032070BD0A460320217B274BE6
:1028480008F052FB94F82C51002D36D0244B082068
:10285800A36070BD012B20D10A46204B217B0320A9
:1028680008F042FB04F598700A21002208F0C0FC29
:10287800EFF3118272B63F2383F3118862B6D4F85E
:1028880020311B68196841F02001196082F3118812
:10289800002384F82C31032070BD124B0020A36064
:1028A80070BD0A460D4B217B032008F01DFB04F583
:1028B800987008F0BFFC032070BD0820267B07F045
:1028C80045FC40F6422206714671C580028007F039
:1028D800D1F9054B0820A36070BD00BFBCC100083A
:1028E80011280008C126000875290008F8B50B88CA
:1028F8000C46022B054626D023D9032B1DD0B3F551
:10290800286F28D1297B2246154B032008F0ECFAC2
:102918000C202D7B6679E48807F018FC40F68127A7
:102928000621002206714571C48045720780017234
:10293800428107F09FF90320F8BD0A4B0820AB60DD
:10294800F8BD012B07D1297B22460320044B08F050
:10295800CBFA0320F8BD044B0020AB60F8BD00BFE4
:10296800F8C00008152500082D8D00080B8810B543
:10297800022B0A46044629D040F641218B421CD03E
:10298800012B03D0154B0020A36010BD0320217B31
:10299800134B08F0A9FAEFF3118272B63F2383F3C1
:1029A800118862B6D4F820311B68196841F02001FB
:1029B800196082F31188032010BD0320217B084B86
:1029C80008F092FA074B0820A36010BD017B044B66
:1029D800032008F089FA032010BD00BFC1260008B3
:1029E800E8C1000811280008F8B50D4A0D4B0E4F34
:1029F80006460260C0F8B830C0F8C47000F1780527
:102A080000F1B80454F8083D1B6820469847A542D1
:102A1800F8D13767304606F07FF93046F8BD00BF79
:102A280068D0000838BF000828BF0008F8B50E4A6B
:102A38000E4B0F4F06460260C0F8B830C0F8C4709D
:102A480000F1780500F1B80454F8083D1B682046E9
:102A58009847A542F8D13767304606F05DF9304609
:102A680008F08CFC3046F8BD68D0000838BF000874
:102A780028BF000838B5094B05461C880820621C89
:102A88001A8007F063FB002240F64221057142716B
:102A9800C4800180BDE8384007F0ECB8140001207C
:102AA80038B5094B05461C880820621C1A8007F0B7
:102AB8004DFB002240F6422105714271C48001801D
:102AC800BDE8384007F0D6B816000120F8B50E4B1F
:102AD80007461C880820621C0E461A8007F036FB41
:102AE800002540F641220771C4800280457107F035
:102AF800C1F8012E00D0F8BD284632460349BDE88A
:102B0800F84008F0D7B800BF1200012008C100083B
:102B18002DE9F8430F463B49044615469846DFF829
:102B2800FC9006F061F93849384ADFF8F4C0DFF85C
:102B3800F4E00026052301206162E26223852386F2
:102B48002561C4F818C0C4F81CE0208427736461A8
:102B5800C4F80090668604F1340006F0BFFD2665CF
:102B680004F1540006F0BAFD29492A4A082304F161
:102B78007800C4F8B820354684F87460A4F8766004
:102B880084F8C860A4F8CA60C4F8C0303246C4F8F3
:102B9800BC002167A167C4F88010C4F88810C4F885
:102BA8009010C4F89810C4F8A010C4F8A810C4F87D
:102BB800B010C4F8C41005E0D4F8BC0094F8C8609C
:102BC800B4F8CA5000EBC2000671D4F8C0600132F4
:102BD800B242C580F0D3104A00232260C4F8208195
:102BE8003946C4F81C3184F82431C4F8283184F8F3
:102BF8002C3104F598704FF4206208F0EBFA204667
:102C0800BDE8F88309250008C8C10008F4C1000818
:102C180028BF000838BF0008D0C0000868D00008E6
:102C280020CF0008C4C10008F0B585B00A9E0B9DEE
:102C3800046800270096019502976469A04705B0CB
:102C4800F0BD00BF10B5054C204650F80C3F1B687E
:102C58009847236820461B68984710BD1801012033
:102C6800024B0349034A1960DA60704734010120B6
:102C780070C2000860C20008014B836008207047DA
:102C88002D2D0008014B0360704700BF10C20008DB
:102C98000249034A0160C260704700BF20C20008B1
:102CA80010C20008014B0360704700BF60C20008F3
:102CB8000249034A0160C260704700BF70C2000841
:102CC80060C2000810B5034B0446036008F056FBC9
:102CD800204610BD10C2000810B5044A044B044633
:102CE8000260C36008F04AFB204610BD20C20008FD
:102CF80010C2000810B5034B0446036008F03EFB01
:102D0800204610BD60C2000810B5044A044B0446B2
:102D18000260C36008F032FB204610BD70C2000894
:102D280060C20008F8B50B880C46032B054659D03D
:102D38000CD8012B43D0022B20D190F83810224612
:102D480003202A4B08F0D0F80320F8BDB3F5086F2C
:102D580018D040F68202934210D195F838102246D6
:102D68000320224B08F0C0F86179E288204B85F8EF
:102D7800A010A5F8A220AB600820F8BD1D4B0020CC
:102D8800AB60F8BD95F838102246184B032008F0C0
:102D9800ABF80C2095F838506679E48807F0D6F936
:102DA80040F681070621002206714571C4804572EC
:102DB80007800172428106F05DFF0320F8BD0A46D4
:102DC8000A4B95F83810032008F08EF805F54E7078
:102DD800294608F0CDF905F27C40294608F0C8F9E3
:102DE8000320F8BD044B0820AB60F8BD38C30008C9
:102DF800F53200082D8D0008F93C00082DE9F8434C
:102E08000B880C46022B054633D030D940F6852274
:102E1800934203D040F68442934234D195F8381057
:102E2800224603201A4B08F05FF8B5F85E600C20C4
:102E3800731CA5F85E3094F80990277A95F83880C5
:102E4800648907F083F995F8C01540F68402C680B6
:102E580080F80990017180F805800772448102802A
:102E680006F008FF0B4B0820AB60BDE8F883012B88
:102E780009D195F8381022460320054B08F034F89C
:102E88000320BDE8F883044B0020AB60BDE8F8835D
:102E980000C40008A52E0008D92E000808B50B8824
:102EA8000A46012B01D0022B08D190F83810064BA6
:102EB800032008F019F80323184608BD034A002325
:102EC8008260184608BD00BF98C20008D92E0008C5
:102ED80038B50B880A46022B044624D0032B1ED093
:102EE800012B03D0144B0020A36038BD94F8381090
:102EF8000320124B07F0F8FF94F83850A5F10804A6
:102F0800A4B2012C03D90E48542105F07FF92946B3
:102F1800234603200B4A07F05DFF032038BD0A4B08
:102F28000820A36038BD90F83810044B032007F040
:102F3800DBFF032038BD00BF2D2D000890C200081C
:102F480008C40008E8BF0008052E00082DE9F0476E
:102F58000B8840F64102934282B00D46044600F0C9
:102F68005B8100F2E480022B00F0F380B3F5006F80
:102F780000F02A81012B40F0E6800A46032094F8ED
:102F88003810C34B07F0B0FF002204F2CC50C82120
:102F980008F02EF9D4F8E82012B1D4F8EC3043B98F
:102FA800BC483E2105F032F9D4F8EC3093B1D4F89E
:102FB800E820002301E0D4F8E82094F8F41002EBAC
:102FC800C302B4F8F6001171D4F8EC1001338B4247
:102FD800D080F0D3D4F8C435002B00F07E81D4F82B
:102FE800C835002B00F07981B4F85E80102008F114
:102FF8000103A4F85E3094F8385007F0A7F894F865
:1030080035A3D4F8C41594F8C0254FF44863814615
:1030180080F804A04571A0F80680816002730380DF
:10302800BAF1000F03D19C485C2105F0EFF8D4F801
:10303800E85015B1D4F8EC7047B996484E2105F020
:10304800E5F8D4F8EC70A7B1D4F8E85094F8F46037
:103058002B79B34212D005F10803002203E013F8DC
:10306800041CB1420AD00132BA421D4603F10803DA
:10307800F5D388486B2105F0C9F80025A5F8068026
:10308800484685F804A006F0F5FDB4F85E701020F7
:103098007B1CA4F85E3094F8385007F057F894F881
:1030A8003493D4F8C81594F8C0254FF428638046A3
:1030B80080F804904571C780816002730380B9F17C
:1030C800000F03D174485C2105F0A0F8D4F8E8504B
:1030D80015B1D4F8EC6046B96E484E2105F096F863
:1030E800D4F8EC60A6B1D4F8E85094F8F4402B7901
:1030F800A34212D005F10803002203E013F8041CD0
:10310800A1420AD0013296421D4603F10803F5D8C0
:1031180060486B2105F07AF80025404685F8049050
:10312800EF8006F0A7FD032002B0BDE8F08740F667
:103138008122934221D040F6814293421DD040F62D
:103148004202934240D0554B0020A36002B0BDE834
:10315800F0870A464E4B94F83810032007F0C4FE57
:1031680004F2CC5008F066F80023032084F8A0305D
:10317800A4F8A23002B0BDE8F087264616F8381F3A
:1031880003202A46424B07F0AFFE304629466A46DE
:1031980007F028F80646002860D09DF800307BB17B
:1031A800082094F8385006F0D1FF0023014640F675
:1031B8004102057120460A804B71CB8006F0D2FE91
:1031C800032002B0BDE8F0872A46314B032094F86B
:1031D800381007F089FE2A8840F642039A4263D0E5
:1031E8000C2094F8385094F8A070B4F8A26006F057
:1031F800ADFF40F681010222002307714571C680A8
:10320800457201800272438106F034FD244B082088
:10321800A36002B0BDE8F0870A461D4B94F8381049
:10322800032007F061FE0C2094F8A07094F8386031
:10323800B4F8A25006F08AFF002240F68101077117
:103248004671C580018002724272428106F012FD09
:10325800144B0820A36002B0BDE8F0870C2094F856
:10326800387095F8089095F809806D8906F06EFF1A
:1032780040F64203014680F8089007714771C680FE
:1032880080F80980458120460B8006F06BFE97E7A1
:10329800F4C3000840C300084CC300082D2D0008E3
:1032A800F5320008D92E00080C202F7A6E7A94F88F
:1032B800A0A094F83890B4F8A2806D8906F046FF73
:1032C80040F6810380F804A080F80590A0F80680F5
:1032D800077246724581038096E7034840F26511FC
:1032E80004F094FF80E600BF08C400082DE9F04709
:1032F8000B8840F64102934282B00D46044600F026
:10330800438100F2CE80022B00F01681B3F5006FE6
:1033180000F00581012B40F0F8800A46032094F85C
:103328003810B74B07F0E0FD002204F2CC50C8215A
:1033380007F05EFFD4F8E82012B1D4F8EC3043B9B6
:10334800B0483E2104F062FFD4F8EC3093B1D4F8D1
:10335800E820002301E0D4F8E82094F8F41002EB08
:10336800C302B4F8F6001171D4F8EC1001338B42A3
:10337800D080F0D3B4F85E80082008F10103A4F8E7
:103388005E3094F8385006F0E1FE94F834A340F625
:103398008223814680F804A04571A0F80680038046
:1033A800BAF1000F03D198485C2104F02FFFD4F83C
:1033B800E85015B1D4F8EC7047B992484E2104F0A2
:1033C80025FFD4F8EC70A7B1D4F8E85094F8F4606D
:1033D8002B79B34212D005F10803002203E013F859
:1033E800041CB1420AD0013297421D4603F108037A
:1033F800F5D884486B2104F009FF0025A5F806805C
:10340800484685F804A006F035FCB4F85E7008203C
:103418007B1CA4F85E3094F8385006F097FE94F8B8
:10342800359340F68243804680F804904571C78002
:103438000380B9F1000F03D173485C2104F0E6FE64
:10344800D4F8E85015B1D4F8EC6046B96D484E216F
:1034580004F0DCFED4F8EC60A6B1D4F8E85094F897
:10346800F4402B79A34212D005F10803002203E0AF
:1034780013F8041CA1420AD0013296421D4603F1FA
:103488000803F5D85F486B2104F0C0FE00254046CC
:1034980085F80490EF8006F0EDFB032002B0BDE84C
:1034A800F08740F6820293425ED034D940F68322F8
:1034B800934203D040F68342934226D1264616F81B
:1034C800381F03202A464E4B07F00EFD304629468A
:1034D8006A4606F087FE0646002877D09DF8003039
:1034E8007BB1082094F8385006F030FE00230146DE
:1034F80040F64102057120460A804B71CB8006F0E8
:1035080031FD032002B0BDE8F087404B0020A360E6
:1035180002B0BDE8F08740F642029342F5D194F834
:1035280038102A460320364B07F0DEFC384840F2B4
:10353800D71104F06BFEE4E70A46314B94F83810D3
:10354800032007F0D1FC04F2CC5007F073FE0023EF
:1035580004F1600084F8A030A4F8A23006F0EAFD77
:10356800032002B0BDE8F08794F838102A46244BAF
:10357800032007F0B9FC04F16000294606F0C0FDFD
:10358800032002B0BDE8F0870A461D4B94F83810B6
:10359800032007F0A9FC0C2094F8A07094F8386078
:1035A800B4F8A25006F0D2FD002240F6830107715C
:1035B8004671C580018002724272428106F05AFB50
:1035C800144B0820A36002B0BDE8F0870C2094F8E3
:1035D800387095F8089095F809806D8906F0B6FD61
:1035E80040F64203014680F8089007714771C6808B
:1035F80080F80980458120460B8006F0B3FC80E7FF
:1036080084C2000840C300084CC300082D2D0008E0
:1036180008C40008F93C00082DE9F843304BDFF8EE
:10362800DC90304F304E05460360C0F87C94C0F8FB
:103638003475C0F8406500F2F44800F2345454F888
:10364800083D1B6820469847A045F8D1C5F8EC64AA
:1036580005F27C4005F060FB05F56C78C5F83893F9
:10366800C5F8F073C5F8FC6305F57C7454F8083D9B
:103678001B6820469847A045F8D1C5F8A86305F50A
:103688004E7005F049FB1949194A1A4B2960C5F8CB
:10369800A821C5F8B43105F5A47805F5D47454F813
:1036A8000C3D1B6820469847A045F8D1C5F8E47042
:1036B800C5F8F06005F1A40705F1E40454F8083DE5
:1036C8001B6820469847A742F8D10B4BC5F89C6069
:1036D8002B60284605F020FB2846BDE8F88300BF8C
:1036E80030C2000838BF000828BF0008C8CE00084C
:1036F80020C2000810C20008F0CD000868D00008F9
:103708002DE9F843314BDFF8E090314F314E054653
:103718000360C0F87C94C0F83475C0F8406500F2C6
:10372800F44800F2345454F8083D1B682046984782
:10373800A045F8D1C5F8EC6405F27C4005F0ECFA38
:1037480005F56C78C5F83893C5F8F073C5F8FC63CF
:1037580005F57C7454F8083D1B6820469847A04539
:10376800F8D1C5F8A86305F54E7005F0D5FA1A49E1
:103778001A4A1B4B2960C5F8A821C5F8B43105F5CC
:10378800A47805F5D47454F80C3D1B682046984776
:10379800A045F8D1C5F8E470C5F8F06005F1A407B4
:1037A80005F1E40454F8083D1B6820469847A742F1
:1037B800F8D10C4BC5F89C602B60284605F0ACFA94
:1037C800284607F0DBFD2846BDE8F88330C200082C
:1037D80038BF000828BF0008C8CE000820C200086B
:1037E80010C20008F0CD000868D00008F8B5154BE5
:1037F8001A68D20708D4144A1449012414481160DD
:10380800D1601C6007F0BEFD12490B6813F001037C
:1038180015D1114A0C4C0D4EDFF844E00227012562
:103828000E4813745361D6602371A36023746361D7
:10383800C2F800E0976054600D6007F0A3FD0648E9
:10384800F8BD00BF140101201801012060C2000862
:103858004D2C00083001012034010120692C00089A
:1038680070C2000870B5054648B3FFF7BFFF44684B
:103878000646DCB18068C8B12379AB4212D004F1A6
:103888000C03002203E013F8081CA9420AD00132F5
:1038980082421C4603F10C03F5D30E48422104F082
:1038A800B5FC0024A4687CB1204670BD0A484E21AE
:1038B80004F0ACFCB0680028EFD07468DCE7054879
:1038C800402104F0A3FCD0E70248442104F09EFC08
:1038D800204670BD08C4000840C30008083810B569
:1038E80084B2012C03D90348542104F08FFC2046EC
:1038F80010BD00BF08C4000870B50546002843D0B5
:10390800FFF774FF4468064624B3806810B3A368C1
:103918009D4212D004F10C03002203E053F8041C6A
:103928008D420AD0013282421C4603F10C03F5D3C2
:1039380018484C2104F06AFC002423799BB1083B09
:103948009CB2012C15D804F10C00C0B2BDE870403F
:10395800FEF730BD1048612104F058FCB06800281B
:10396800E6D07468D3E70B484E2104F04FFC4FF6BD
:10397800F8740848542104F049FC04F10C00C0B262
:10398800BDE87040FEF716BD02484A2104F03EFC2F
:10399800B6E700BF08C4000840C3000870B5054674
:1039A800002843D0FFF722FF4468064624B3806806
:1039B80010B3A3689D4212D004F10C03002203E067
:1039C80053F8041C8D420AD0013282421C4603F18E
:1039D8000C03F5D318484C2104F018FC0024237973
:1039E8009BB1083B9CB2012C15D804F10A00C0B267
:1039F800BDE87040FFF73EB81048612104F006FCAE
:103A0800B0680028E6D07468D3E70B484E2104F06C
:103A1800FDFB4FF6F8740848542104F0F7FB04F155
:103A28000A00C0B2BDE87040FFF724B802484A2136
:103A380004F0ECFBB6E700BF08C4000840C3000868
:103A480070B50546002843D0FFF7D0FE4468064607
:103A580024B3806810B3A3689D4212D004F10C030C
:103A6800002203E053F8041C8D420AD0013282423E
:103A78001C4603F10C03F5D318484C2104F0C6FB8F
:103A8800002423799BB1083B9CB2012C15D804F182
:103A98000A00C0B2BDE87040FFF702B810486121C3
:103AA80004F0B4FBB0680028E6D07468D3E70B488C
:103AB8004E2104F0ABFB4FF6F8740848542104F08B
:103AC800A5FB04F10A00C0B2BDE87040FEF7E8BFEC
:103AD80002484A2104F09AFBB6E700BF08C4000870
:103AE80040C30008F0B5D0F800327C495A6889B064
:103AF8008A42044600F0CE8001F54C418A4200F02B
:103B0800BE8077488A2104F081FBD4F800325D69D1
:103B18009A69186903A903230227012603950792C6
:103B2800049705960693FCF7D5FED4F8003203A94E
:103B38001D6B5A6BD86A03950792FCF7CBFED4F835
:103B480000320025DA691B6A4FF4803104F51D76CE
:103B580040204FF48067C4F87422C4F87832C4F85F
:103B68007C02C4F88052C4F88852C4F88C52C4F855
:103B78009052C4F894123046C4F88472FCF7B2FC30
:103B8800D4F8003204F535719A6BDB6B04F5017CCF
:103B9800C4F8D8324FF400304FF48073C4F864622C
:103BA800C4F8D422C4F8DC52C4F8E052C4F8E8528D
:103BB800C4F8EC52C4F8F032C4F8F402C4F8E47261
:103BC8000846C4F8ACC20E466546FCF78BFCD4F830
:103BD8000032C4F8686293F82410C4F80C534AB24F
:103BE800002A9B6A69DB190102F1604303F561430E
:103BF800CAB283F80023D4F80032012593F82420B0
:103C0800384802F01F018D4052B293F84010520913
:103C180040F822504AB2002A5B6C46DB190102F1D7
:103C2800604303F56143CAB283F80023D4F8003235
:103C3800012593F840202B4802F01F018D4052B215
:103C4800197A520940F822504AB2002ADB683CDB54
:103C5800190102F1604303F56143CAB283F80023F6
:103C6800D4F8003201201B7A1E4A03F01F0100FA23
:103C780001F15BB25B0942F8231009B0F0BD1A4AA2
:103C8800516C41F020015164526C02F02002029202
:103C9800029A3CE7144A116C41F480211164126CB9
:103CA80002F480220192019A31E7104A01F00F01D3
:103CB8001B01DBB20A441376B8E70C4A01F00F0186
:103CC8001B01DBB20A44137695E7084A01F00F019D
:103CD8001B01DBB20A441376C2E700BF004800406C
:103CE80008C4000800E100E000380240FCEC00E0F5
:103CF8000B882DE9F041B3F5046F0D4604467ED0DC
:103D08000DD8012B01D0022B2DD194F838102A465A
:103D18000320504B07F0E8F80320BDE8F081B3F525
:103D2800086F25D040F6820293421CD194F83810CF
:103D38002A46484B032007F0D7F80C2094F838702F
:103D48006E79EC8806F002FA002240F6830147718A
:103D58000671C480018002724272428105F08AFFB6
:103D68000320BDE8F0813C4B0020A360BDE8F08152
:103D780094F838102A46374B032007F0B5F8204648
:103D8800FFF7B0FED4F8003200265B684FF4E1324A
:103D98004FF00C08C4F80432C4F80822C4F80C62C6
:103DA800C4F81062C4F81462C4F81C62C4F818821B
:103DB80004F50170FDF762FC074660BB6B790820CB
:103DC80084F8C035AA68EB68C4F8C425C4F8C835B7
:103DD8006A79EB8884F8A020A4F8A23094F83860B7
:103DE80006F0B4F94FF40463014606714771C780C1
:103DF80020460B8006F0B6F80320BDE8F0810A469D
:103E0800032094F83810134B07F06EF8134B082072
:103E1800A360BDE8F081034694F838103046104A94
:103E280006F0D8FF404694F8387095F80580ED887C
:103E380006F08CF9032440F6810280F8048047716B
:103E4800C580477246810280047205F013FF204640
:103E5800BDE8F081A0C200082D2D0008552F0008EC
:103E680058C300082DE9F84F0F46AA4904461646DC
:103E78009846DFF8C4B205F013FCDFF8C0A2A64AE2
:103E8800DFF8BCC2A5480025032105234FF0010E29
:103E9800A4F85410A265A4F85C30E663C4F848C0DE
:103EA800A4F84CE0206584F838702464C4F800B0A5
:103EB800C4F844A0A4F85E5004F1600005F00EFCBC
:103EC800E56704F1800005F009FC954E9548082146
:103ED80004F1A403C4F8E400C4F8EC102A4684F8FA
:103EE800A050A4F8A25084F8F450A4F8F65029463B
:103EF8002846C4F8E830C4F89C60C4F8A460C4F844
:103F0800AC60C4F8B460C4F8BC60C4F8C460C4F859
:103F1800CC60C4F8D460C4F8DC60C4F8F06005E094
:103F2800D4F8E83094F8F410B4F8F62003EBC003A2
:103F38001971D4F8EC1001308842DA80F0D3DFF838
:103F480004E2DFF80492002304F5A471082518465A
:103F580084F8B831C4F8BC311A461E46C4F848E1A2
:103F6800C4F854E1C4F860E1C4F86CE1C4F878E13D
:103F7800C4F884E1C4F890E1C4F89CE1C4F8B4E161
:103F8800C4F8A891C4F8AC11C4F8B05105E0D4F84D
:103F9800AC1194F8B831D4F8BC2101440B71D4F8B1
:103FA800B03101369E428A6000F10C00EFD3A7F1D0
:103FB80008095D491FFA89F30022012B2160C4F822
:103FC800002240F29D80DEB25848542104F01EF9C8
:103FD80006F10A03542184F83433544804F016F9DE
:103FE80094F8341306F10C0304F5017684F835339C
:103FF8004246334604F54E70FEF78AFD00250A9ABC
:10400800334694F8351304F27C40FEF7E9F95FFA79
:1040180089F984F8C055C4F8C455C4F8C85504F2E1
:10402800CC5039464FF4006207F0D4F8B9F1010FCB
:1040380045D93E48DD2104F0E9F82946702230468A
:1040480007F0C6F92946602204F51D7007F0C0F98B
:10405800294604F53570602207F0BAF93348E8219B
:1040680004F0D4F8FFF7C2FB436805460BB1826839
:104078001ABB2F484E2104F0C9F8AB689BB19C4687
:104088006B68287C1A79824212D003F10C02002551
:1040980003E012F8081C81420AD001356545134631
:1040A80002F10C02F5D322486B2104F0AFF800238B
:1040B8001F719E602046BDE8F88F9446E1E72946C7
:1040C8007022304607F084F92946602204F51D70F5
:1040D80007F07EF904F535702946602207F078F973
:1040E800082F14D0092F08BF4FF00108B6D14FEAA6
:1040F800C802104B904403EBC803C4F80032B1E780
:10410800DEB206F10A01C9B284F834136AE7A84698
:10411800EDE700BF812C000814C4000878C200082D
:1041280028BF000838BF000830C2000808C40008CB
:1041380040C30008A8C20008C8CE000820CF000865
:10414800F0C3000810C2000820C20008014B8360B9
:104158000820704761410008F8B50B880C46032B0E
:10416800054646D00CD8012B01D0022B20D195F85A
:10417800381022460320214B06F0B6FE0320F8BD76
:10418800B3F5686F18D040F68262934210D195F863
:10419800381022460320194B06F0A6FE6179E28802
:1041A800174B85F8A010A5F8A220AB600820F8BD31
:1041B800144B0020AB60F8BD95F8381022460F4B21
:1041C800032006F091FE0C2095F838506679E488B3
:1041D80005F0BCFF40F68167062100220671457193
:1041E800C480457207800172428105F043FD0320B7
:1041F800F8BD054B0820AB60F8BD00BF08C5000836
:10420800B54200082D8D0008154200080B8870B5CE
:10421800022B0C46054636D033D9B3F5686F1FD04C
:1042280040F68262934237D195F8381022461C4BEB
:10423800032006F059FE0C2095F838606579E4886B
:1042480005F084FF002240F6836146710571C48041
:10425800018002724272428105F00CFD032070BD9C
:1042680095F83810224603200D4B06F03DFE617983
:10427800E2880C4B85F8A010A5F8A220AB600820B6
:1042880070BD012B08D195F8381022460320044B45
:1042980006F02AFE032070BD034B0020AB6070BD02
:1042A80080C400085144000861410008F8B50B8833
:1042B8000D46B3F5606F044649D00ED940F6416209
:1042C800934244D040F6826293424DD0B3F5646F76
:1042D8001DD04B4B0020A360F8BD012B52D0022B00
:1042E800F7D10A46474B94F83810032006F0FCFD36
:1042F80004F5007006F09EFF002304F1600084F8C6
:10430800A030A4F8A23005F015FF0320F8BD0A4636
:104318003C4B94F83810032006F0E6FD0C2094F886
:10432800A07094F83860B4F8A25005F00FFF00228E
:1043380040F6836107714671C5800180027242723E
:10434800428105F097FC304B0820A360F8BD94F833
:1043580038102A462B4B032006F0C6FD2B48F121C6
:1043680003F054FF0320F8BD94F838102A46254B73
:10437800032006F0B9FD04F16000294605F0C0FEEF
:104388000320F8BD0A46032094F838101D4B06F0A8
:10439800ABFD002204F50070C82106F029FFD4F80F
:1043A800E82012B1D4F8EC3043B919483E2103F0A3
:1043B8002DFFD4F8EC3093B1D4F8E820002301E0C5
:1043C800D4F8E82094F8F41002EBC302B4F8F6002D
:1043D8001171D4F8EC1001338B42D080F0D308204F
:1043E80094F8384005F0B2FE00224FF4646104717D
:1043F80001804271C28005F03DFC0320F8BD00BF7A
:104408006141000858C400081542000810C500089A
:1044180040C3000808B50B880A46012B01D0022BBF
:1044280008D190F83810064B032006F05DFD0323F1
:10443800184608BD034A00238260184608BD00BF1D
:1044480070C40008614100080B882DE9F047B3F5F6
:10445800606F0D4604465CD054D8012B14D0022B53
:104468007ED10A465E4B94F83810032006F03CFDD6
:1044780004F5007006F0DEFE002384F8A030A4F8EE
:10448800A2300320BDE8F0870A46032094F83810CC
:10449800534B06F029FD002204F50070C82106F0F0
:1044A800A7FED4F8E82012B1D4F8EC3043B94D484F
:1044B8003E2103F0ABFED4F8EC3093B1D4F8E820F9
:1044C800002301E0D4F8E82094F8F41002EBC302CA
:1044D800B4F8F6001171D4F8EC1001338B42D08097
:1044E800F0D3082094F8384005F030FE00224FF44D
:1044F8006461047101804271C28005F0BBFB032036
:10450800BDE8F087B3F5646F2FD040F6416293425F
:1045180026D12A46324B032094F8381006F0E4FCE2
:104528002A8840F641639A4240D00C2094F83850CB
:1045380094F8A070B4F8A26005F008FE40F6816116
:104548000222002307714571C680457201800272FC
:10455800438105F08FFB244B0820A360BDE8F0875A
:10456800224B0020A360BDE8F0870A461C4B94F854
:104578003810032006F0B8FC0C2094F8A07094F8CA
:104588003860B4F8A25005F0E1FD002240F68161E0
:1045980007714671C580018002724272428105F03E
:1045A80069FB134B0820A360BDE8F0870C202F7A25
:1045B8006E7A94F8A0A094F83890B4F8A2806D8927
:1045C80005F0C4FD40F6816380F804A080F80590EA
:1045D800A0F806800772467245810380B9E700BFDC
:1045E80064C4000840C30008B542000861410008DF
:1045F8001D440008F8B51749174A184B05460160CD
:10460800C0F8A821C0F8B43100F5A47600F5D47438
:1046180054F80C3D1B6820469847A642F8D1104B29
:10462800104FC5F8E430C5F8F07005F1A40605F19F
:10463800E40454F8083D1B6820469847A642F8D180
:10464800094BC5F89C702B60284604F065FB28468A
:10465800F8BD00BFC8CE000820C2000810C200087C
:1046680038BF000828BF0008F0CD0008F8B5184981
:10467800184A194B05460160C0F8A821C0F8B431A2
:1046880000F5A47600F5D47454F80C3D1B68204658
:104698009847A642F8D1114B114FC5F8E430C5F838
:1046A800F07005F1A40605F1E40454F8083D1B6810
:1046B80020469847A642F8D10A4BC5F89C702B6053
:1046C800284604F029FB284606F058FE2846F8BD7F
:1046D800C8CE000820C2000810C2000838BF000871
:1046E80028BF0008F0CD00082DE9F84356490446D4
:1046F800DFF8749104F0D4FF544F554ADFF86CC1C9
:10470800DFF86CE1534800260221042301254FF00D
:104718000E08A4F85410A265A4F85C30C4F83CC094
:10472800C4F844E0A4F84C5020652464C4F8009010
:1047380084F83880A764A4F85E6004F1600004F08F
:10474800CDFFE66704F1800004F0C8FF424D4348FE
:10475800082304F1A402C4F8E400C4F8EC3031469C
:1047680084F8A060A4F8A26084F8F460A4F8F66065
:1047780030463346C4F8E820C4F89C50C4F8A45026
:10478800C4F8AC50C4F8B450C4F8BC50C4F8C45011
:10479800C4F8CC50C4F8D450C4F8DC50C4F8F05075
:1047A80005E0D4F8E82094F8F400B4F8F61002EB29
:1047B800C3021071D4F8EC0001338342D180F0D3E6
:1047C800274EDFF8B0E0002204F5A471082713464D
:1047D80084F8B821C4F8BC2115461046C4F84861CD
:1047E800C4F85461C4F86061C4F86C61C4F87861B5
:1047F800C4F88461C4F89061C4F89C61C4F8B461D9
:10480800C4F8A8E1C4F8AC11C4F8B07105E0D4F854
:10481800AC1194F8B801D4F8BC5119440871D4F813
:10482800B001013282428D6003F10C03EFD30D4BCE
:1048380004F50070236094F838104FF4606206F0B5
:10484800C9FC2046BDE8F88355410008F4C40008B7
:10485800F8C4000878C4000828BF000838BF00085A
:1048680010C2000830C40008C8CE000888C4000878
:1048780020CF000820C20008014B83600820704741
:104888003D490008F8B50B880C46022B05463FD079
:104898003CD9B3F58C5F1DD041F2821293423FD1CF
:1048A800297B2246204B032006F01EFB0C202E7B82
:1048B8006579E48805F04AFC002241F283114671CB
:1048C8000571C480018002724272428105F0D2F9FA
:1048D8000320F8BD297B2246134B032006F004FB76
:1048E8000C2067792E7BE48805F030FC002241F229
:1048F800811107714671C48001800272427242813F
:1049080005F0B8F9094B0820AB60F8BD012B07D1B9
:10491800297B22460320044B06F0E6FA0320F8BD63
:10492800034B0020AB60F8BD60C50008BD49000816
:104938003D490008F8B50B880C46022B054626D0E1
:1049480023D9032B1DD0B3F58C5F28D1297B2246B0
:10495800154B032006F0C8FA0C202D7B6679E488F5
:1049680005F0F4FB41F2811706210022067145711A
:10497800C480457207800172428105F07BF90320EB
:10498800F8BD0A4B0820AB60F8BD012B07D1297B85
:1049980022460320044B06F0A7FA0320F8BD044B77
:1049A8000020AB60F8BD00BF40C500088D48000876
:1049B8002D8D0008F8B50B880C46022B054639D01A
:1049C80041F28212934219D0012B03D0204B0020D0
:1049D800AB60F8BD0A460320297B1E4B06F084FA1B
:1049E8002D7BA5F11104A4B2032C2BD8294623460C
:1049F8000320194A06F0EEF90320F8BD297B224668
:104A0800144B032006F070FA0C2067792E7BE4889B
:104A180005F09CFB002241F2831107714671C480A6
:104A2800018002724272428105F024F90B4B082082
:104A3800AB60F8BD017B22460320064B06F054FA12
:104A48000320F8BD06485B2103F0E0FBCEE700BF7A
:104A58003D49000848C50008E8BF00088D4800081F
:104A680010C60008F8B50D4A0D4B0E4F06460260F9
:104A7800C0F8B830C0F8C47000F1780500F1B80487
:104A880054F8083D1B6820469847A542F8D1376777
:104A9800304604F041F93046F8BD00BF68D0000840
:104AA80038BF000828BF0008F8B50E4A0E4B0F4F54
:104AB80006460260C0F8B830C0F8C47000F1780546
:104AC80000F1B80454F8083D1B6820469847A542F1
:104AD800F8D13767304604F01FF9304606F04EFC2F
:104AE8003046F8BD68D0000838BF000828BF000865
:104AF8002DE9F843524D04462E78142E00F28F808B
:104B0800B046113EB6B2032E03D94E48492103F0F0
:104B18007DFB4D4B4D49204653F82660DFF8409108
:104B280004F062F9DFF83CC1DFF83CE14849494844
:104B3800002701230422C4F818C0C4F81CE0E1626D
:104B48002384238522862661606284F80C80646150
:104B5800C4F80090678604F1340004F0BFFD2765AF
:104B680004F1540004F0BAFD3B4EDFF800C104F133
:104B780078024FF0080E394684F87470A4F87670FD
:104B880084F8C870A4F8CA7038463B462667A667FA
:104B9800C4F88060C4F88860C4F89060C4F898606D
:104BA800C4F8A060C4F8A860C4F8B060C4F8C460D1
:104BB800C4F8B8C0C4F8BC20C4F8C0E005E0D4F814
:104BC800BC2094F8C800B4F8CA1002EBC3021071F4
:104BD800D4F8C00001338342D180F0D31F4A0023A8
:104BE8002260C4F81C3104F59070217B4FF4885280
:104BF80006F0F0FA2B78124E142B0AD80133DBB2E8
:104C08002B701BB90F48562103F000FB2046BDE866
:104C1800F8830C484F2103F0F9FA3378EEE7094896
:104C28004F2103F0F3FA95F80080B8F1140F05D975
:104C380004484F2103F0EAFA2E7862E7464660E717
:104C48001800012010C6000850C500088148000857
:104C580024C600080CC6000828BF000828C500089C
:104C680068D0000820CF000808C6000838BF000830
:104C7800014B836008207047854C0008F8B50B8805
:104C88000D46032B04465BD00CD8012B43D0022BD6
:104C980020D190F838102A4603202B4B06F024F92F
:104CA8000320F8BDB3F5845F18D041F28202934225
:104CB80010D194F838102A460320234B06F014F933
:104CC8006979EA88214B84F8A010A4F8A220A3608F
:104CD8000820F8BD1E4B0020A360F8BD94F83810DA
:104CE8002A46194B032006F0FFF80C2094F83840A8
:104CF8006E79ED8805F02AFA41F281070621002233
:104D080006714471C580447207800172428104F0C3
:104D1800B1FF0320F8BD0A46032094F838100A4B67
:104D280006F0E2F804F5007504F5DA66284621462F
:104D380005F59A7506F01CFAB542F7D10320F8BDBF
:104D4800044B0820A360F8BD30C70008E9500008EC
:104D58002D8D0008614D00080B8870B5022B0C469C
:104D6800054636D033D9B3F5845F1FD041F28202AD
:104D7800934237D195F8381022461C4B032006F091
:104D8800B3F80C2095F838606579E48805F0DEF909
:104D9800002241F2830146710571C48001800272CC
:104DA8004272428104F066FF032070BD95F8381006
:104DB800224603200D4B06F097F86179E2880C4BE8
:104DC80085F8A010A5F8A220AB60082070BD012BC3
:104DD80008D195F8381022460320044B06F084F8D1
:104DE800032070BD034B0020AB6070BD90C6000867
:104DF800354E0008854C000808B50B880A46012B7B
:104E080001D0022B08D190F83810064B032006F089
:104E18006BF80323184608BD034A0023826018462E
:104E280008BD00BF88C60008854C00082DE9F0477A
:104E38000B8882B0B3F5805F0D4604464CD010D97C
:104E480041F24106B34247D041F2811293426CD0FD
:104E5800B3F5825F1ED09D4B0020A36002B0BDE871
:104E6800F087012B00F08780022BF4D10A46984B7B
:104E7800032094F8381006F037F804F5DA6006F0E5
:104E8800D9F9002384F8A030A4F8A230032002B096
:104E9800BDE8F0870A468E4B94F83810032006F0D8
:104EA80023F80C2094F8A07094F83860B4F8A25055
:104EB80005F04CF9002241F2810107714671C58065
:104EC800018002724272428104F0D4FE814B0820B4
:104ED800A36002B0BDE8F0872A467D4B032094F812
:104EE800381006F001F82A8841F241039A4200F08E
:104EF800D3800C2094F8385094F8A070B4F8A260CD
:104F080005F024F941F2810102220023077145715D
:104F1800C680457201800272438104F0ABFE6E4B7D
:104F28000820A36002B0BDE8F087074617F8381FCD
:104F380003202A46664B05F0D7FF384629466A46BD
:104F480005F050F90746002800F08C809DF80030E5
:104F5800002B9BD0082094F8385005F0F7F8002370
:104F680001464FF48252057120460A804B71CB806E
:104F780004F0F8FF8AE70A46032094F83810544BE7
:104F880005F0B2FF002204F5DA60C82106F030F916
:104F9800D4F8E82012B1D4F8EC3043B94F483E2198
:104FA80003F034F9D4F8EC3093B1D4F8E8200023B6
:104FB80001E0D4F8E82094F8F41002EBC302B4F846
:104FC800F6001171D4F8EC1001338B42D080F0D385
:104FD8001127B4F85E80082008F10103A4F85E30B8
:104FE80094F8385005F0B2F807714571D4F8E850D4
:104FF8004FF48C538146A0F80680038035B3D4F86B
:10500800EC301BB39E4694F8F4602B79B34212D06F
:1050180005F10803002203E013F8041CB1420AD08A
:10502800013272451D4603F10803F5D32B486B2165
:1050380003F0ECF800252F710137A5F806804846E3
:10504800FFB204F017FE152FC3D11FE723484E21E6
:1050580003F0DCF8D4F8EC30002BE7D09E46D4F807
:10506800E850D0E70C2094F8388095F808A095F817
:1050780009906D8905F06AF8014680F808A0068055
:1050880080F8048080F80580C78080F80990458101
:10509800204604F067FFF9E60C202F7A6E7A94F820
:1050A800A0A094F83890B4F8A2806D8905F04EF865
:1050B80041F2810380F804A080F80590A0F80680EA
:1050C800077246724581038027E700BF854C0008B8
:1050D80074C60008014E0008E950000840C30008E3
:1050E8002DE9F0430B8883B0B3F5825F0D46044683
:1050F80000F0CE8076D8022B00F0F880B3F5805F00
:1051080000F0E880012B40F0A1800A46032094F8C3
:1051180038108F4B05F0E8FE002204F5DA60C8214C
:1051280006F066F8D4F8E82012B1D4F8EC3043B9A8
:1051380088483E2103F06AF8D4F8EC3093B1D4F8EB
:10514800E820002301E0D4F8E82094F8F41002EBFA
:10515800C302B4F8F6001171D4F8EC1001338B4295
:10516800D080F0D31127B4F85E80082008F101033D
:10517800A4F85E3094F8385004F0E8FF07714571E0
:10518800D4F8E85041F282138146A0F806800380E3
:10519800002D61D0D4F8EC30002B5DD09E4694F8F9
:1051A800F4602B79B34212D005F10803002203E022
:1051B80013F8041CB1420AD0013272451D4603F1AE
:1051C8000803F5D363486B2103F020F800252F71FD
:1051D8000137A5F806804846FFB204F04BFD152FAD
:1051E800C1D12BE041F28202934241D041F28312B5
:1051F800934227D1064616F8381F03202A46544BF7
:1052080005F072FE304629466A4604F0EBFF064672
:10521800002800F083809DF800307BB1082094F8C6
:10522800385004F093FF002301464FF48252057171
:1052380020460A804B71CB8004F094FE032003B013
:10524800BDE8F08341F24102934243D0424B002033
:10525800A36003B0BDE8F0833E484E2102F0D6FFBC
:10526800D4F8EC30002BADD09E46D4F8E85096E741
:1052780094F838102A46364B032005F035FE04F121
:105288006000294604F03CFF032003B0BDE8F0832A
:105298000A462F4B94F83810032005F025FE0C2001
:1052A80094F8A07094F83860B4F8A25004F04EFF57
:1052B800002241F2830107714671C58001800272A4
:1052C8004272428104F0D6FC244B0820A36003B04C
:1052D800BDE8F08394F838102A4603201C4B05F0EB
:1052E80003FE1F48EF2102F091FFA7E70A46184B7B
:1052F80094F83810032005F0F7FD04F5DA6005F09E
:1053080099FF002304F1600084F8A030A4F8A230CB
:1053180004F010FF032003B0BDE8F0830C2094F8DC
:10532800387095F8089095F809806D8904F00EFF9B
:1053380041F24103014680F8089007714771C68021
:1053480080F80980458120460B8004F00BFE75E744
:1053580068C6000840C30008854C0008614D000875
:105368001CC70008F8B51E4B0546036000F500761B
:1053780000F5DA64A4F59A74236820461B689847F8
:10538800A642F7D11749184A184B2960C5F8A82131
:10539800C5F8B43105F5A47605F5D47454F80C3D78
:1053A8001B6820469847A642F8D1114B114FC5F803
:1053B800E430C5F8F07005F1A40605F1E40454F8EA
:1053C800083D1B6820469847A642F8D10A4BC5F805
:1053D8009C702B60284603F09FFC2846F8BD00BF50
:1053E80040C60008C8CE000820C2000810C2000845
:1053F80038BF000828BF0008F0CD0008F8B51F4BDB
:105408000546036000F5007600F5DA64A4F59A74A1
:10541800236820461B689847A642F7D11849194ABD
:10542800194B2960C5F8A821C5F8B43105F5A4764B
:1054380005F5D47454F80C3D1B6820469847A642DD
:10544800F8D1124B124FC5F8E430C5F8F07005F1E9
:10545800A40605F1E40454F8083D1B682046984763
:10546800A642F8D10B4BC5F89C702B60284603F078
:1054780053FC284605F082FF2846F8BD40C60008C0
:10548800C8CE000820C2000810C2000838BF0008B3
:1054980028BF0008F0CD00082DE9F8435B49044611
:1054A800DFF8889104F0FCF8594F5A4ADFF880C1B8
:1054B800DFF880E1584800260221042301254FF037
:1054C8001008A4F85410A265A4F85C30C4F83CC0D5
:1054D800C4F844E0A4F84C5020652464C4F8009053
:1054E80084F83880A764A4F85E6004F1600004F0D2
:1054F800F5F8E66704F1800004F0F0F8474D4848F5
:10550800082304F1A402C4F8E400C4F8EC303146DE
:1055180084F8A060A4F8A26084F8F460A4F8F660A7
:1055280030463346C4F8E820C4F89C50C4F8A45068
:10553800C4F8AC50C4F8B450C4F8BC50C4F8C45053
:10554800C4F8CC50C4F8D450C4F8DC50C4F8F050B7
:1055580005E0D4F8E82094F8F400B4F8F61002EB6B
:10556800C3021071D4F8EC0001338342D180F0D328
:105578002C4EDFF8C4E0002204F5A4710827134676
:1055880084F8B821C4F8BC2115461046C4F848610F
:10559800C4F85461C4F86061C4F86C61C4F87861F7
:1055A800C4F88461C4F89061C4F89C61C4F8B4611B
:1055B800C4F8A8E1C4F8AC11C4F8B07105E0D4F897
:1055C800AC1194F8B801D4F8BC5119440871D4F856
:1055D800B001013282428D6003F10C03EFD3124B0C
:1055E80004F50075236004F5DA66284605F59A7512
:1055F800FFF77EFAB542F8D1284694F838104FF4F0
:10560800805205F0E7FD2046BDE8F883794C000894
:1056180008C700080CC7000880C6000828BF000893
:1056280038BF000810C2000840C60008C8CE0008ED
:1056380098C6000820CF000820C20008014B8360EC
:10564800082070475156000870B50C8840F20113C5
:105658009C4286B00A46054668D0B4F5817F4FD291
:10566800012C0ED0022C5CD195F83810334B032056
:1056780005F03AFC05F5057005F0DCFD032006B0E1
:1056880070BD95F8381003202C4B05F02DFC02F066
:10569800FDFF2B4B06A91A6B032642F002021A6380
:1056A8001B6B284803F0020341F8144D0093009B3C
:1056B800029403940496FBF70DF9224605F505704C
:1056C8004FF4FA7105F094FD082004F03FFD002521
:1056D8004FF484511022018002714471C58004F096
:1056E800C9FA082004F032FD4FF468610E22C58023
:1056F80044710180027104F0BDFA304606B070BDF5
:1057080040F681639C4203D041F281039C4208D158
:1057180095F838100320094B05F0E6FB032006B086
:1057280070BD094B0020AB6006B070BD0548012173
:10573800FBF71AFA032006B070BD00BFECC70008DB
:1057480000380240000402402D8D0008F8B51749C2
:10575800174A184B05460160C0F8A821C0F8B431B3
:1057680000F5A47600F5D47454F80C3D1B68204667
:105778009847A642F8D1104B104FC5F8E430C5F849
:10578800F07005F1A40605F1E40454F8083D1B681F
:1057980020469847A642F8D1094BC5F89C702B6063
:1057A800284603F0B9FA2846F8BD00BFC8CE00085D
:1057B80020C2000810C2000838BF000828BF00082F
:1057C800F0CD0008F8B51849184A194B054601608C
:1057D800C0F8A821C0F8B43100F5A47600F5D47457
:1057E80054F80C3D1B6820469847A642F8D1114B47
:1057F800114FC5F8E430C5F8F07005F1A40605F1BD
:10580800E40454F8083D1B6820469847A642F8D19E
:105818000A4BC5F89C702B60284603F07DFA284691
:1058280005F0ACFD2846F8BDC8CE000820C2000827
:1058380010C2000838BF000828BF0008F0CD0008D3
:105848002DE9F04159490446594D03F029FFDFF885
:1058580080815849DFF87CE15748584F00260223D9
:1058680004224FF0010CA165A4F85C20A4F84C3088
:10587800A4F8543084F838C0C4F83CE0A564206526
:105888002464C4F800806764A4F85E6004F16000D2
:1058980003F024FFE66704F1800003F01FFF484D82
:1058A8004848082304F1A402C4F8E400C4F8EC3022
:1058B800314684F8A060A4F8A26084F8F460A4F8E3
:1058C800F66030463346C4F8E820C4F89C50C4F863
:1058D800A450C4F8AC50C4F8B450C4F8BC50C4F8D0
:1058E800C450C4F8CC50C4F8D450C4F8DC50C4F840
:1058F800F05005E0D4F8E82094F8F400B4F8F61075
:1059080002EBC3021071D4F8EC0001338342D1805A
:10591800F0D32D4EDFF8C0E0002204F5A47108276B
:10592800134684F8B821C4F8BC2115461046C4F8BB
:105938004861C4F85461C4F86061C4F86C61C4F883
:105948007861C4F88461C4F89061C4F89C61C4F8B3
:10595800B461C4F8A8E1C4F8AC11C4F8B07105E0AA
:10596800D4F8AC1194F8B801D4F8BC5119440871B2
:10597800D4F8B001013282428D6003F10C03EFD3F9
:10598800124B94F83810236004F500704FF48072BD
:1059980005F020FC04F5057094F8381040F2011267
:1059A80005F018FC2046BDE8F08100BF4556000808
:1059B800D4C70008DCC7000868C7000820CF000863
:1059C80028BF000838BF000810C2000840C70008F8
:1059D800C8CE000870C7000820C20008014A022388
:1059E80002F09AB9F4C7000808B50B88B3F5217F0F
:1059F80002D1024902F088F8002008BD14C8000846
:105A080000B5002383B00093034A022302F03EFA54
:105A180003B05DF804FB00BFF4C70008014B8360C6
:105A280008207047315A00080B8870B5022B0D46C4
:105A3800044638D035D9032B2FD0B3F5D06F3AD1DF
:105A4800217B2A4603201E4B05F04EFA6A6905F1B0
:105A580008004FF0FF3600250BC8C4F82C21C4F805
:105A68002001C4F82411C4F82831C4F83061082092
:105A78001D60267B04F06AFB40F241630146067113
:105A88004571C58003804FF6FF7204F1540003F09E
:105A98003BFE0C4B0820A36070BD0B4B0820A36095
:105AA80070BD012B07D1217B2A460320044B05F04A
:105AB8001BFA032070BD054B0020A36070BD00BF1A
:105AC800A4C80008095B0008D95A00082D8D0008F1
